:030000000200A556
:0C00A500787FE4F6D8FD75810C020003A2
:10007400010204081020C0F9A4B0999282F880907B
:0B0084008883C6A1868EFF0C897FBF19
:10000300E4F508E4F5A0AF08EF3395E0FE747A2F2A
:10001300F58274003EF583E493F59074742FF582B2
:1000230074003EF583E493F5A0E4750CB8750B0BEF
:10003300F50AF509E4FFFEFDFCAB0CAA0BA90AA81F
:1000430009D312008F401A74FF250CF50CE50B340D
:10005300FFF50BE50A34FFF50AE50934FFF50980DE
:10006300D30508D3E508648094854097E4F50880B8
:0100730092FA
:10008F00EB9FF5F0EA9E42F0E99D42F0EC6480C8E8
:06009F0064809845F02288
:00000001FF
